{
  "contractName": "App",
  "abi": [
    {
      "inputs": [
        {
          "internalType": "uint256",
          "name": "pContentCreatorId",
          "type": "uint256"
        },
        {
          "internalType": "string",
          "name": "pName",
          "type": "string"
        },
        {
          "internalType": "string",
          "name": "pDescription",
          "type": "string"
        },
        {
          "internalType": "uint8",
          "name": "pPrice",
          "type": "uint8"
        },
        {
          "internalType": "string",
          "name": "pTopic",
          "type": "string"
        },
        {
          "internalType": "uint256",
          "name": "pCreationDate",
          "type": "uint256"
        }
      ],
      "name": "createCourse",
      "outputs": [
        {
          "internalType": "bool",
          "name": "",
          "type": "bool"
        }
      ],
      "stateMutability": "nonpayable",
      "type": "function"
    },
    {
      "inputs": [
        {
          "internalType": "uint256",
          "name": "pContentCreatorId",
          "type": "uint256"
        }
      ],
      "name": "getCourses",
      "outputs": [
        {
          "components": [
            {
              "internalType": "uint256",
              "name": "id",
              "type": "uint256"
            },
            {
              "internalType": "uint256",
              "name": "contentCreatorId",
              "type": "uint256"
            },
            {
              "internalType": "string",
              "name": "name",
              "type": "string"
            },
            {
              "internalType": "string",
              "name": "description",
              "type": "string"
            },
            {
              "internalType": "uint8",
              "name": "price",
              "type": "uint8"
            },
            {
              "internalType": "string",
              "name": "topic",
              "type": "string"
            },
            {
              "internalType": "uint8",
              "name": "totalRating",
              "type": "uint8"
            },
            {
              "internalType": "uint8",
              "name": "ratingCount",
              "type": "uint8"
            },
            {
              "internalType": "uint256",
              "name": "creationDate",
              "type": "uint256"
            }
          ],
          "internalType": "struct App.ContentCreator_Course[]",
          "name": "ccCourse",
          "type": "tuple[]"
        }
      ],
      "stateMutability": "view",
      "type": "function"
    }
  ],
  "bytecode": "0x608060405234801561001057600080fd5b50610e83806100206000396000f3fe608060405234801561001057600080fd5b50600436106100365760003560e01c80637405abaa1461003b578063f3c3ace81461006b575b600080fd5b61005560048036038101906100509190610847565b61009b565b6040516100629190610acd565b60405180910390f35b61008560048036038101906100809190610c50565b610338565b6040516100929190610d4c565b60405180910390f35b6060600080838152602001908152602001600020805480602002602001604051908101604052809291908181526020016000905b8282101561032d578382906000526020600020906008020160405180610120016040529081600082015481526020016001820154815260200160028201805461011790610d96565b80601f016020809104026020016040519081016040528092919081815260200182805461014390610d96565b80156101905780601f1061016557610100808354040283529160200191610190565b820191906000526020600020905b81548152906001019060200180831161017357829003601f168201915b505050505081526020016003820180546101a990610d96565b80601f01602080910402602001604051908101604052809291908181526020018280546101d590610d96565b80156102225780601f106101f757610100808354040283529160200191610222565b820191906000526020600020905b81548152906001019060200180831161020557829003601f168201915b505050505081526020016004820160009054906101000a900460ff1660ff1660ff16815260200160058201805461025890610d96565b80601f016020809104026020016040519081016040528092919081815260200182805461028490610d96565b80156102d15780601f106102a6576101008083540402835291602001916102d1565b820191906000526020600020905b8154815290600101906020018083116102b457829003601f168201915b505050505081526020016006820160009054906101000a900460ff1660ff1660ff1681526020016006820160019054906101000a900460ff1660ff1660ff168152602001600782015481525050815260200190600101906100cf565b505050509050919050565b600080600080898152602001908152602001600020805480602002602001604051908101604052809291908181526020016000905b828210156105cb57838290600052602060002090600802016040518061012001604052908160008201548152602001600182015481526020016002820180546103b590610d96565b80601f01602080910402602001604051908101604052809291908181526020018280546103e190610d96565b801561042e5780601f106104035761010080835404028352916020019161042e565b820191906000526020600020905b81548152906001019060200180831161041157829003601f168201915b5050505050815260200160038201805461044790610d96565b80601f016020809104026020016040519081016040528092919081815260200182805461047390610d96565b80156104c05780601f10610495576101008083540402835291602001916104c0565b820191906000526020600020905b8154815290600101906020018083116104a357829003601f168201915b505050505081526020016004820160009054906101000a900460ff1660ff1660ff1681526020016005820180546104f690610d96565b80601f016020809104026020016040519081016040528092919081815260200182805461052290610d96565b801561056f5780601f106105445761010080835404028352916020019161056f565b820191906000526020600020905b81548152906001019060200180831161055257829003601f168201915b505050505081526020016006820160009054906101000a900460ff1660ff1660ff1681526020016006820160019054906101000a900460ff1660ff1660ff1681526020016007820154815250508152602001906001019061036d565b5050505090506000600182516105e19190610df7565b905060006040518061012001604052808381526020018b81526020018a81526020018981526020018860ff168152602001878152602001600060ff168152602001600060ff1681526020018681525090506000808b81526020019081526020016000208190806001815401808255809150506001900390600052602060002090600802016000909190919091506000820151816000015560208201518160010155604082015181600201908051906020019061069e92919061075a565b5060608201518160030190805190602001906106bb92919061075a565b5060808201518160040160006101000a81548160ff021916908360ff16021790555060a08201518160050190805190602001906106f992919061075a565b5060c08201518160060160006101000a81548160ff021916908360ff16021790555060e08201518160060160016101000a81548160ff021916908360ff16021790555061010082015181600701555050600193505050509695505050505050565b82805461076690610d96565b90600052602060002090601f01602090048101928261078857600085556107cf565b82601f106107a157805160ff19168380011785556107cf565b828001600101855582156107cf579182015b828111156107ce5782518255916020019190600101906107b3565b5b5090506107dc91906107e0565b5090565b5b808211156107f95760008160009055506001016107e1565b5090565b6000604051905090565b600080fd5b600080fd5b6000819050919050565b61082481610811565b811461082f57600080fd5b50565b6000813590506108418161081b565b92915050565b60006020828403121561085d5761085c610807565b5b600061086b84828501610832565b91505092915050565b600081519050919050565b600082825260208201905092915050565b6000819050602082019050919050565b6108a981610811565b82525050565b600081519050919050565b600082825260208201905092915050565b60005b838110156108e95780820151818401526020810190506108ce565b838111156108f8576000848401525b50505050565b6000601f19601f8301169050919050565b600061091a826108af565b61092481856108ba565b93506109348185602086016108cb565b61093d816108fe565b840191505092915050565b600060ff82169050919050565b61095e81610948565b82525050565b60006101208301600083015161097d60008601826108a0565b50602083015161099060208601826108a0565b50604083015184820360408601526109a8828261090f565b915050606083015184820360608601526109c2828261090f565b91505060808301516109d76080860182610955565b5060a083015184820360a08601526109ef828261090f565b91505060c0830151610a0460c0860182610955565b5060e0830151610a1760e0860182610955565b50610100830151610a2c6101008601826108a0565b508091505092915050565b6000610a438383610964565b905092915050565b6000602082019050919050565b6000610a6382610874565b610a6d818561087f565b935083602082028501610a7f85610890565b8060005b85811015610abb5784840389528151610a9c8582610a37565b9450610aa783610a4b565b925060208a01995050600181019050610a83565b50829750879550505050505092915050565b60006020820190508181036000830152610ae78184610a58565b905092915050565b600080fd5b600080fd5b7f4e487b7100000000000000000000000000000000000000000000000000000000600052604160045260246000fd5b610b31826108fe565b810181811067ffffffffffffffff82111715610b5057610b4f610af9565b5b80604052505050565b6000610b636107fd565b9050610b6f8282610b28565b919050565b600067ffffffffffffffff821115610b8f57610b8e610af9565b5b610b98826108fe565b9050602081019050919050565b82818337600083830152505050565b6000610bc7610bc284610b74565b610b59565b905082815260208101848484011115610be357610be2610af4565b5b610bee848285610ba5565b509392505050565b600082601f830112610c0b57610c0a610aef565b5b8135610c1b848260208601610bb4565b91505092915050565b610c2d81610948565b8114610c3857600080fd5b50565b600081359050610c4a81610c24565b92915050565b60008060008060008060c08789031215610c6d57610c6c610807565b5b6000610c7b89828a01610832565b965050602087013567ffffffffffffffff811115610c9c57610c9b61080c565b5b610ca889828a01610bf6565b955050604087013567ffffffffffffffff811115610cc957610cc861080c565b5b610cd589828a01610bf6565b9450506060610ce689828a01610c3b565b935050608087013567ffffffffffffffff811115610d0757610d0661080c565b5b610d1389828a01610bf6565b92505060a0610d2489828a01610832565b9150509295509295509295565b60008115159050919050565b610d4681610d31565b82525050565b6000602082019050610d616000830184610d3d565b92915050565b7f4e487b7100000000000000000000000000000000000000000000000000000000600052602260045260246000fd5b60006002820490506001821680610dae57607f821691505b60208210811415610dc257610dc1610d67565b5b50919050565b7f4e487b7100000000000000000000000000000000000000000000000000000000600052601160045260246000fd5b6000610e0282610811565b9150610e0d83610811565b9250827fffffffffffffffffffffffffffffffffffffffffffffffffffffffffffffffff03821115610e4257610e41610dc8565b5b82820190509291505056fea2646970667358221220076a4d7449f22a7d043af190e111026d4a39091faab2300d0fdb06e9800eb63564736f6c634300080a0033",
  "immutableReferences": {},
  "source": "// SPDX-License-Identifier: MIT OR Apache-2.0\r\npragma solidity ^0.8.0;\r\n\r\ninterface IERC20 {\r\n    function transfer(address recipient, uint256 amount)\r\n        external\r\n        returns (bool);\r\n}\r\n\r\ncontract App{\r\n\r\n\r\n\r\n    enum CourseStatus {\r\n        NOT_STARTED,\r\n        IN_PROGRESS,\r\n        COMPLETED\r\n    }\r\n\r\n    enum CourseModuleStatus {\r\n        NOT_STARTED,\r\n        IN_PROGRESS,\r\n        COMPLETED\r\n    }\r\n\r\n    enum RewardStatus {\r\n        RECEIVED,\r\n        NOT_RECEIVED,\r\n        ERROR\r\n    }\r\n\r\n    mapping(uint256 => ContentCreator_Course[]) courses;    // contentCreatorId-coursesList\r\n    mapping(uint256 => ContentCreator_CourseModule[]) modules;    // courseId-courseModulesList\r\n    mapping(uint256 => LearnerCourseStatus[]) courseStatus;    // learnerId-courseStatusList\r\n    mapping(uint256 => LearnerCourseModuleStatus[]) moduleStatus;    // learnerCourseId-courseModuleStatusList\r\n    mapping(uint256 => uint256[]) contentCreator_learnersList;  // content creator's learner list\r\n    mapping(uint256 => uint256[]) learner_contentCreatorList;   // learner's content creator list\r\n\r\n    struct ContentCreator_Course{\r\n        uint256 id;\r\n        uint256 contentCreatorId;\r\n        string name;\r\n        string description;\r\n        uint8 price;\r\n        string topic;\r\n        uint8 totalRating;\r\n        uint8 ratingCount;\r\n        uint256 creationDate;\r\n    }\r\n\r\n    struct ContentCreator_CourseModule{\r\n        uint256 id;\r\n        uint256 contentCreatorCourseId;\r\n        string name;\r\n        string description;\r\n        string videoURL;\r\n        string videoLength;\r\n        string questionnaireURL;\r\n        uint8 rewardPrice;\r\n        uint8 rewardValidity;\r\n        uint8 maxAttempts;\r\n        uint256 creationDate;\r\n    }\r\n\r\n    struct LearnerCourseStatus{\r\n        uint256 id;\r\n        uint256 learnerId;\r\n        uint256 courseId;\r\n        CourseStatus courseStatus;\r\n        bool isRatingProvided;\r\n        uint256 startDate;\r\n        uint256 endDate;\r\n        uint256 purchaseDate;\r\n    }\r\n\r\n    struct LearnerCourseModuleStatus{\r\n        uint256 id;\r\n        uint256 learnerId;\r\n        uint256 learnerCourseStatusId;\r\n        CourseModuleStatus courseModuleStatus;\r\n        uint8 attempts;\r\n        uint8 rewardPrice;\r\n        uint8 yourRewardPrice;\r\n        RewardStatus rewardStatus;\r\n        bool completedOnTime;\r\n        uint256 startDate;\r\n        uint256 endDate;\r\n    }\r\n\r\n    function createCourse(uint256 pContentCreatorId, \r\n                            string memory pName,\r\n                            string memory pDescription,\r\n                            uint8 pPrice,\r\n                            string memory pTopic,\r\n                            uint256 pCreationDate) public returns(bool){\r\n\r\n        //uint256 initialCoursesLength = courses[pContentCreatorId].length;\r\n        ContentCreator_Course[] memory ccCourses = courses[pContentCreatorId];\r\n        uint256 courseIndex = ccCourses.length + 1;\r\n        ContentCreator_Course memory newCourse = ContentCreator_Course({\r\n            id: courseIndex,\r\n            contentCreatorId: pContentCreatorId,\r\n            name: pName,\r\n            description: pDescription,\r\n            price: pPrice,\r\n            topic: pTopic,\r\n            totalRating: 0,\r\n            ratingCount: 0,\r\n            creationDate: pCreationDate\r\n        });\r\n        courses[pContentCreatorId].push(newCourse);\r\n\r\n        //return (initialCoursesLength != courses[pContentCreatorId].length);\r\n        return true;\r\n    }\r\n\r\n    function getCourses(uint256 pContentCreatorId) public view returns(ContentCreator_Course[] memory ccCourse){\r\n        return courses[pContentCreatorId];\r\n    }\r\n\r\n}",
  "sourcePath": "/mnt/d/upload/quicknodebounty/contracts/App.sol",
  "compiler": {
    "name": "solc",
    "version": "0.8.10+commit.fc410830.Emscripten.clang"
  },
  "schemaVersion": "3.4.4",
  "updatedAt": "2022-11-04T23:45:34.402Z",
  "devdoc": {
    "kind": "dev",
    "methods": {},
    "version": 1
  },
  "userdoc": {
    "kind": "user",
    "methods": {},
    "version": 1
  }
}